:100000000C9496100C94C7100C94C7100C94C71045
:100010000C94C7100C94C7100C94C7100C94C71004
:100020000C94C7100C94C7100C94C7100C94C710F4
:100030000C94C7100C94C7100C94C7100C94C710E4
:100040000C94C7100C94B38E0C94C7100C94C7106A
:100050000C94C7100C94C7100C94949E0C94F852F6
:100060000C94C7100C94AC340C94C7100C94C710AB
:100070000C94C7100C94C7100C94C7100C94C710A4
:100080000C94C7100C94C7100C94C7100C94C71094
:100090000C94C7100C94C7100C94C7100C94C71084
:1000A0000C94C7100C94C7100C94C7100C94C71074
:1000B0000C94C7100C94C7100C94C7100C94C71064
:1000C0000C94C7100C94C7100C94C7100C94C71054
:1000D0000C94C7100C94C7100C94C7100C94C71044
:1000E0000C94C7103451375126512A5130516E515A
:1000F0003B513F51455149514D51535157515B511E
:100100006E51615165516951145219521E52285253
:100110003252AB523C5244524C52565260526A5286
:1001200079528352AB528D529752A152084AD73B13
:100130003BCE016E84BCBFFDC12F3D6C74319ABDB6
:1001400056833DDA3D00C77F11BED9E4BB4C3E91DA
:100150006BAAAABE000000803F05A84CCDB2D44EC9
:10016000B93836A9020C50B9918688083CA6AAAACB
:100170002ABE000000803F004E414E494E4954596E
:10018000494E46CDCCCC3D0AD7233C17B7D1387762
:10019000CC2B329595E6241FB14F0A000020410078
:1001A00000C84200401C4620BCBE4CCA1B0E5AAEC2
:1001B000C59D74434F4D4D554E49434154494F4E93
:1001C0000044525952554E004552524F5253004925
:1001D0004E464F004543484F0020636F6C642065D6
:1001E0007874727573696F6E2070726576656E745F
:1001F00065640A0047322F473320626164207061D2
:1002000072616D65746572730A00536C6565702E5A
:100210002E2E004368696B6B69205468696E6773A2
:100220002072656164792E00526573756D696E6721
:10023000207072696E7400436C69636B20746F2068
:10024000726573756D652E2E2E004E6F206D6F7664
:10025000652E00456E642066696C65206C69737458
:100260000A00426567696E2066696C65206C697377
:10027000740A005344207072696E74696E6720625C
:1002800079746520004E6F74205344207072696E3B
:1002900074696E670A0046696C652064656C6574F4
:1002A00065643A0044656C6574696F6E20666169C7
:1002B0006C65642C2046696C653A20006F70656E31
:1002C000206661696C65642C2046696C653A200083
:1002D0002569730025696D202569730025696820EB
:1002E00025696D20256973002569642025696820CA
:1002F00025696D20256973002569792025696420A9
:100300002569682025696D20256973005072696E22
:10031000742074696D653A200050726F746563745F
:1003200065642050696E0A004525692025730043E5
:1003300068696B6B69205468696E677320726561C8
:1003400064792E00D401CF01C801C101B3016F66E9
:10035000660044454255473A004B494C4C45442EB3
:1003600020004D3131332053006F6B0048656174BC
:10037000696E6720646F6E652E0020573A00452530
:1003800069202573004368696B6B69205468696E46
:1003900067732072656164792E004368696B6B69CD
:1003A000205468696E67732072656164792E00500D
:1003B000533A310A0050533A300A004368696B6B74
:1003C00069205468696E6773204F66662E0043612A
:1003D000703A454D455247454E43595F504152533F
:1003E00045523A300A004361703A434153455F4CED
:1003F000494748545F4252494748544E4553533A3F
:10040000300A004361703A544F47474C455F4C49AE
:10041000474854533A300A004361703A534F4654A8
:10042000574152455F504F5745523A310A00436198
:10043000703A4C4556454C494E475F444154413A09
:10044000300A004361703A5A5F50524F42453A3089
:100450000A004361703A4155544F4C4556454C3A59
:10046000300A004361703A5052494E545F4A4F423D
:100470003A310A004361703A50524F475245535344
:100480003A300A004361703A4155544F5245504F3B
:1004900052545F54454D503A310A004361703A4519
:1004A0004550524F4D3A300A004649524D5741523D
:1004B000455F4E414D453A4D61726C696E20312E5B
:1004C000312E3520284769746875622920534F55AD
:1004D0005243455F434F44455F55524C3A687474EC
:1004E00070733A2F2F6769746875622E636F6D2F72
:1004F0004D61726C696E4669726D776172652F4DE0
:1005000061726C696E2050524F544F434F4C5F568E
:10051000455253494F4E3A312E30204D41434849C0
:100520004E455F545950453A4368696B6B69205496
:1005300068696E67732045585452554445525F436D
:100540004F554E543A3120555549443A63656465D8
:10055000326132662D343161322D343734382D39E1
:100560006231322D6335356336326633363766662F
:100570000A002F2F20007A5F6D696E3A2000795FA4
:100580006D696E3A2000785F6D61783A200052659F
:10059000706F7274696E6720656E6473746F70201B
:1005A0007374617475730A004D31343520533C699E
:1005B0006E6465783E206F7574206F662072616E80
:1005C00067652028302D31290A0053657474696EDF
:1005D000672054726176656C20416363656C657257
:1005E0006174696F6E3A200053657474696E672098
:1005F0005265747261637420416363656C657261F6
:1006000074696F6E3A200053657474696E67205088
:1006100072696E7420416363656C65726174696FA1
:100620006E3A200053657474696E67205072696E6B
:100630007420616E642054726176656C204163633E
:10064000656C65726174696F6E3A2000000136371F
:1006500026FF023C3D380EFF2E303E12FFFF0C08F5
:1006600009FFFFFF1A1C18FFFF08440AFF43FFFFA2
:10067000FFFFFFFF20643A0020693A0020703A0033
:1006800043290A0061626C656420286D696E2074DC
:10069000656D702000436F6C6420657874727564BA
:1006A000657320617265200023646566696E65204C
:1006B0002044454641554C545F4B642000236465FB
:1006C00066696E65202044454641554C545F4B6930
:1006D000200023646566696E6520204445464155C7
:1006E0004C545F4B702000504944204175746F7426
:1006F000756E652066696E69736865642120507542
:100700007420746865206C617374204B702C204BCE
:100710006920616E64204B6420636F6E7374616E38
:1007200074732066726F6D2062656C6F7720696EDE
:10073000746F20436F6E66696775726174696F6E5E
:100740002E680A00504944204175746F74756E65B7
:10075000206661696C6564212074696D656F7574CC
:100760000A00504944204175746F74756E652066A7
:1007700061696C6564212054656D70657261747582
:10078000726520746F6F20686967680A00204B6487
:100790003A2000204B693A2000204B703A20000A92
:1007A00020436C617373696320504944200A002020
:1007B00054753A2000204B753A2000206D61783A3C
:1007C0002000206D696E3A200020643A20002062EB
:1007D0006961733A20004F666673657473206170B7
:1007E000706C696564004572723A20546F6F2066C0
:1007F00061722100546F6F206661722066726F6DA6
:10080000207265666572656E636520706F696E74CF
:100810000A00454550524F4D2064697361626C6512
:10082000640A004E6F2063617365206C69676874A9
:100830000A00416374697665204578747275646551
:10084000723A2000556E6B6E6F776E20636F6D6D20
:10085000616E643A2022004E6F204C696E65204E16
:10086000756D626572207769746820636865636B73
:1008700073756D2C204C617374204C696E653A2041
:10088000004B494C4C45442E200053544F5050458A
:10089000442E20005072696E7465722073746F70FC
:1008A0007065642064756520746F206572726F7264
:1008B000732E2046697820746865206572726F72A5
:1008C00020616E6420757365204D39393920746F4D
:1008D00020726573746172742E202854656D706582
:1008E0007261747572652069732072657365742E08
:1008F0002053657420697420616674657220726586
:100900007374617274696E67290A004E6F204368C0
:1009100065636B73756D2077697468206C696E65AB
:10092000206E756D6265722C204C617374204C6969
:100930006E653A2000636865636B73756D206D6941
:10094000736D617463682C204C617374204C696E04
:10095000653A20004C696E65204E756D62657220A7
:100960006973206E6F74204C617374204C696E65DE
:10097000204E756D6265722B312C204C6173742092
:100980004C696E653A20004D313130004D333100F5
:100990004D383420582059205A20450053442072A5
:1009A000656164206572726F720A00446F6E652023
:1009B0007072696E74696E672066696C650A0020E2
:1009C000496E76616C6964206578747275646572CD
:1009D00020000000000000000000000000000000F7
:1009E0008C430000C8430000C843202F0020403A39
:1009F00000205A3A0020593A0020436F756E742047
:100A0000583A0020453A00205A3A0020593A0058F6
:100A10003A00205A00205900580020204D61783AB1
:100A20002000205A00205900580020204D696E3ABD
:100A300020004F6E20004F666600536F667420657D
:100A40006E6473746F70733A2000507265686561EC
:100A5000742041425320636F6E6600507265686572
:100A6000617420504C4120636F6E66005049442DE4
:100A700044005049442D44005049442D49005049F8
:100A8000442D49005049442D50005049442D5000F8
:100A900020022046616374002002204661637400D6
:100AA0002002204D6178002002204D617800200254
:100AB000204D6178002002204D696E002002204DFB
:100AC000696E002002204D696E004F6666004F6E11
:100AD00020004175746F74656D700046616E2073FF
:100AE000706565640046616E207370656564004ED4
:100AF0006F7A7A6C65004E6F7A7A6C6500436F6E20
:100B000074726F6C004E6F7A7A6C65004E6F7A7AF1
:100B10006C650046616E2073706565640046616EA9
:100B20002073706565640054656D706572617475DD
:100B30007265005654726176206D696E005654726B
:100B40006176206D696E005654726176206D696E13
:100B500000566D696E00566D696E00566D696E00C7
:100B6000566D6178204500566D6178204500566DC0
:100B70006178204500566D6178205A00566D617885
:100B8000205A00566D6178205A00566D61782059C0
:100B900000566D6178205900566D617820590056D5
:100BA0006D6178205800566D6178205800566D614F
:100BB000782058004D6F74696F6E00416D61782028
:100BC0004500416D6178204500416D6178205A00F3
:100BD000416D6178205A00416D6178205900416D66
:100BE0006178205900416D6178205800416D61782D
:100BF000205800412D74726176656C00412D74722D
:100C00006176656C00412D72657472616374004198
:100C10002D7265747261637400416363656C004199
:100C20006363656C004D6F74696F6E00534420639D
:100C3000617264206F6B0A006F70656E526F6F7423
:100C4000206661696C65640A00766F6C756D652E4F
:100C5000696E6974206661696C65640A005344209A
:100C6000696E6974206661696C0A006175746F252C
:100C7000692E67004D3234004D3233202573005702
:100C8000726974696E6720746F2066696C653A20BA
:100C9000006F70656E206661696C65642C20466922
:100CA0006C653A20006F70656E206661696C6564E2
:100CB0002C2046696C653A200046696C6520736596
:100CC0006C65637465640A002053697A653A200094
:100CD00046696C65206F70656E65643A20006F70C0
:100CE000656E206661696C65642C2046696C653AA6
:100CF00020002066696C653A20004E6F7720002244
:100D000020706F73002220706172656E743A220049
:100D1000535542524F5554494E452043414C4C2067
:100D20007461726765743A22004B494C4C45442EFD
:100D30002000747279696E6720746F2063616C6C37
:100D4000207375622D67636F64652066696C6573D7
:100D5000207769746820746F6F206D616E79206CE4
:100D60006576656C732E204D4158206C6576656CF8
:100D70002069733A004572726F723A004D3432380E
:100D8000004D38300053776974636820706F776561
:100D900072206F6666004D3831005072656865617B
:100DA0007420414253005072656865617420504C54
:100DB0004100436F6F6C646F776E005377697463A3
:100DC0006820706F776572206F6E0044697361628E
:100DD0006C65207374657070657273004D383400F3
:100DE00053657420686F6D65206F666673657473F4
:100DF00000486F6D65205A00473238205A00486F0E
:100E00006D65205900473238205900486F6D6520C4
:100E100058004732382058004175746F20686F6D54
:100E20006500473238004D6F766520617869730040
:100E30004D61696E004D6F76652058004D6F766587
:100E40002059004D6F7665205A004578747275649C
:100E50006572004D6F766520302E316D6D004D6FDF
:100E6000766520316D6D004D6F76652031306D6D8A
:100E7000004D6F76652061786973004578747275EE
:100E8000646572004D6F7665205A004D6F7665205F
:100E900059004D6F76652058004578747275646509
:100EA00072004D6F7665205A004D6F7665205900AF
:100EB0004D6F766520580050726570617265005202
:100EC0006573746F7265206661696C736166650035
:100ED00046696C616D656E74004D6F74696F6E006C
:100EE00054656D7065726174757265004D61696EEF
:100EF00000436172642072656D6F766564004361C2
:100F0000726420696E73657274656400000021006C
:100F1000240027002A002D003000330001010000CA
:100F2000040107010A0100002200250028002B000F
:100F30002E003100340002010000050108010B0100
:100F40007C3C3E5E2B3D3F2F5B5D3B2C2A225C00B0
:100F5000000020002300260029002C002F00320072
:100F6000000100000301060109010505050507054B
:100F700008080808020202020A0A08080404040415
:100F80000101010101010101030303030303030341
:100F9000040707070C0C0C0C0C0C0C0C02020202D0
:100FA00006060606060606060B0B0B0B0B0B0B0BB9
:100FB000010210202008081020401020408002016B
:100FC0000201080402010102040810204080804050
:100FD000201008040201800402018040201008044F
:100FE00002010804020101020408102040800102ED
:100FF00004081020408000000A0B02090C0D0E08A6
:1010000007030401000000000000000000000000D1
:1010100000000000000000000000000000000000D0
:10102000000012111000000000000000000000008D
:101030000000000000000000000000004B494C4C84
:1010400045442E2000202D20496E76616C69642075
:101050006578747275646572206E756D6265722054
:10106000210A002D2D2D2D2D2D007C4D61726C69D6
:101070006E7C002D2D2D2D2D2D00687474703A2F4F
:101080002F6D61726C696E66772E6F72670068747F
:1010900074703A2F2F6D61726C696E66772E6F7265
:1010A000670020312E312E350000000000010204BF
:1010B000040000001C1C0C040404020100000000D9
:1010C0000004081000000000002020506C616E6ECB
:1010D000657242756666657242797465733A20007E
:1010E0002046726565204D656D6F72793A20004328
:1010F0006F6D70696C65643A204F637420323720DD
:10110000323031370A00207C20417574686F723AA2
:1011100020286E6F6E652C2064656661756C742086
:10112000636F6E666967290A00323031372D3038B7
:101130002D32382031323A303000204C6173742027
:10114000557064617465643A2000312E312E350A81
:10115000004D61726C696E0020536F667477617226
:10116000652052657365740A002057617463686472
:101170006F672052657365740A002042726F776E44
:10118000206F75742052657365740A002045787469
:1011900065726E616C2052657365740A00506F77DA
:1011A000657255700A0073746172740A0065727218
:1011B0006F722077726974696E6720746F20666938
:1011C0006C650A00456E6473746F7073202563202C
:1011D000256320256320256300205A3A0020593AD0
:1011E0000020583A00656E6473746F7073206869EC
:1011F000743A2000446F6E6520736176696E6720D3
:1012000066696C652E0A004D32390025753A253025
:10121000327500253032753A25303275002D2D2D6E
:10122000005344005A00590058005072696E7420EF
:1012300070617573656400005072696E742061623C
:101240006F72746564005072696E742066726F6D9F
:101250002053440053746F70207072696E74005292
:101260006573756D65207072696E74005061757379
:1012700065207072696E74004E6F20534420636164
:10128000726400436F6E74726F6C005072657061AF
:1012900072650054756E6500496E666F20736372E7
:1012A00065656E00466C6F7700466C6F770046612F
:1012B0006E2073706565640046616E2073706565AD
:1012C00064004E6F7A7A6C65004E6F7A7A6C6500B6
:1012D0005370656564005370656564004D61696EA7
:1012E0000056652D6A65726B0056652D6A65726BD6
:1012F0000056652D6A65726B00567A2D6A65726BB1
:1013000000567A2D6A65726B0056792D6A65726B8C
:101310000056792D6A65726B0056792D6A65726B7D
:101320000056782D6A65726B0056782D6A65726B6F
:101330000056782D6A65726B004D6F74696F6E0090
:101340004573746570732F6D6D00457374657073AC
:101350002F6D6D005A73746570732F6D6D005A7325
:10136000746570732F6D6D005973746570732F6D94
:101370006D005973746570732F6D6D0058737465CB
:1013800070732F6D6D005873746570732F6D6D00E1
:101390004D6F74696F6E0053746570732F6D6D00BF
:1013A0004A65726B00416363656C65726174696F55
:1013B0006E0056656C6F6369747900436F6E74726A
:1013C0006F6C0046696C2E204469612E0046696C82
:1013D0002E204469612E004F6666004F6E20004546
:1013E00020696E206D6D3300436F6E74726F6C00F8
:1013F00043616E6E6F7420656E74657220737562E2
:101400006469723A2000052E2E004D61696E00203D
:10141000636F6C6420657874727573696F6E207089
:10142000726576656E7465640A0043616E6E6F74F2
:10143000206F70656E207375626469722000656349
:10144000686F3A00544845524D414C2052554E4128
:1014500057415900546865726D616C2052756E6118
:101460007761790048617264636F646564204465E4
:101470006661756C742053657474696E6773204C73
:101480006F616465640A00E8030000E8030000E897
:1014900003000088130000000048420000FA4300E7
:1014A0000048420000C8410000C8430000A04200BC
:1014B00000C8430000BE4220440020490020204DC7
:1014C0003330312050005049442073657474696E84
:1014D00067733A0A0020460020420020480020207E
:1014E0004D3134352053004D6174657269616C2053
:1014F00068656174757020706172616D6574657284
:10150000733A0A00205A0020590020204D3230360C
:10151000205800486F6D65206F66667365743A0ADF
:1015200000204500205A0020590020580020420089
:1015300020540020204D3230352053004164766124
:101540006E6365643A20533C6D696E5F66656564E1
:10155000726174653E20543C6D696E5F7472617691
:10156000656C5F66656564726174653E20423C6DC2
:10157000696E5F7365676D656E745F74696D655FD5
:101580006D733E20583C6D61785F78795F6A657253
:101590006B3E205A3C6D61785F7A5F6A65726B3E84
:1015A00020453C6D61785F655F6A65726B3E0A003D
:1015B00020540020520020204D3230342050004171
:1015C0006363656C65726174696F6E2028756E69FE
:1015D00074732F7332293A20503C7072696E745FB5
:1015E000616363656C3E20523C7265747261637422
:1015F0005F616363656C3E20543C74726176656C18
:101600005F616363656C3E0A00204500205A00203C
:10161000590020204D3230312058004D6178696DDD
:10162000756D20416363656C65726174696F6E20CE
:1016300028756E6974732F7332293A0A00204500A9
:10164000205A0020590020204D3230332058004DC0
:101650006178696D756D2066656564726174657326
:101660002028756E6974732F73293A0A002045008B
:10167000205A0020590020204D3932205800537440
:101680006570732070657220756E69743A0A002067
:10169000204D3230302044300A0020204D3230308E
:1016A0002044002044697361626C65640A004669E5
:1016B0006C616D656E742073657474696E67733ADE
:1016C0000020204D3134392043203B20556E697471
:1016D0007320696E2043656C736975730A0020205E
:1016E000473231202020203B20556E6974732069D9
:1016F0006E206D6D0A0024F4D43050C38E20C2A237
:101700004017828B7011127A910D816CD90AA861F1
:10171000E108C7586607615143061E4B5D05C14588
:10172000A7041A411104093D980371393103403669
:10173000DB0265339102D4305402802E1D02632CEB
:10174000EE01752AC501B028A001102781018F255F
:1017500064012B244B01E0223401AC211F018D20B8
:101760000D01801FFC00841EED00971DDF00B81CDA
:10177000D200E61BC600201BBC00641AB200B219DE
:10178000A8000A19A0006A189900D1179100401703
:101790008B00B516840031167E00B31579003A151A
:1017A0007300C7146F0058146A00EE1366008813A4
:1017B000630025135E00C7125B006C125700151200
:1017C0005400C111510070114F0021114B00D6106F
:1017D00049008D1047004610440002104200C00F1F
:1017E0004000800F3E00420F3C00060F3B00CB0E36
:1017F0003800930E37005C0E3500270E3400F30DD1
:101800003200C10D3100900D3000600D2E00320D00
:101810002D00050D2C00D90C2B00AE0C2900850CD9
:1018200029005C0C2700350C27000E0C2600E80B65
:101830002400C40B2400A00B23007D0B23005A0BB3
:101840002100390B2100180B2000F80A1F00D90ACB
:101850001E00BB0A1E009D0A1D00800A1D00630AAF
:101860001C00470A1B002C0A1B00110A1A00F7096A
:101870001A00DD091900C4091900AB091900920901
:1018800017007B091800630917004C091600360978
:101890001600200916000A091500F5081500E008D1
:1018A0001400CC081400B8081400A4081400900810
:1018B00013007D0812006B08130058081200460838
:1018C0001200340811002308110012081100010849
:1018D0001100F0071000E0071000D0071000C0074B
:1018E0001000B0070F00A107100091070E0083073A
:1018F0000F0074070F0065070E0057070E00490719
:101900000E003B070D002E070E0020070D001307E9
:101910000D0006070D00F9060C00ED060D00E006AF
:101920000C00D4060C00C8060C00BC060C00B00667
:101930000C00A4060B0099060C008D060B00820615
:101940000B0077060B006C060B0061060A005706B9
:101950000B004C060A0042060A0038060A002E0652
:101960000A0024060A001A060A00100609000706E3
:101970000A00FD050900F4050900EB050900E20570
:101980000900D9050900D0050900C7050900BE05F1
:101990000900B5050800AD050800A50509009C056E
:1019A0000800940508008C050800840508007C05E3
:1019B0000800740508006C050700650508005D0552
:1019C0000700560508004E050700470507004005BB
:1019D000080038050700310507002A050700230520
:1019E00007001C050600160507000F05070008057F
:1019F000060002050700FB040600F5040700EE04DC
:101A00000600E8040600E2040700DB040600D50433
:101A10000600CF040600C9040600C3040600BD0486
:101A20000600B7040600B1040500AC040600A604D5
:101A30000600A00405009B04060095040500900420
:101A400006008A04050085040500800406007A0467
:101A5000050075040500700405006B0405006604AC
:101A60000500610405005C040500570405005204EC
:101A700005004D04050048040500430405003E042C
:101A800004003A04050035040500300404002C0469
:101A9000050027040400230405001E0404001A04A2
:101AA000040016040500110404000D0404000904D8
:101AB00005000404040000040400FC030400F8030F
:101AC0000400F4030400F0030400EC030400E80342
:101AD0000400E4030400E0030400DC030400D80372
:101AE0000400D4030400D0030400CC030400C803A2
:101AF0000300C503030024F404D9201BC40C5C0EAE
:101B00009804C4095F0265077101F405F900FB043C
:101B1000B30048048700C10369005803550003035C
:101B20004500BE023A008402310053022A00290215
:101B3000250004022000E4011C00C8011900AF01C7
:101B40001700980114008401130071011000610155
:101B5000100051010E0043010D0036010B002B0156
:101B60000B0020010B00150109000C010900030105
:101B70000800FB000800F3000800EB000700E40089
:101B80000600DE000600D8000600D2000600CC00E9
:101B90000500C7000500C2000500BD000400B90033
:101BA0000400B5000400B1000400AD000400A90069
:101BB0000400A5000300A20003009F0004009B0096
:101BC00003009800030095000200930003009000BA
:101BD00003008D0002008B000300880002008600D5
:101BE000020084000300810002007F0002007D00EB
:101BF00002007B00020079000200770001007600FD
:101C000002007400020072000100710002006F0007
:101C100002006D0001006C0002006A000100690012
:101C20000200670001006600010065000100640019
:101C300002006200010061000100600001005F001D
:101C400002005D0001005C0001005B0001005A0021
:101C50000100590001005800010057000100560022
:101C60000100550001005400010053000000530022
:101C700001005200010051000100500001004F001E
:101C800001004E0000004E0001004D0001004C001C
:101C900001004B0000004B0001004A000100490018
:101CA0000100480000004800010047000100460014
:101CB000000046000100450000004500010044000E
:101CC0000100430000004300010042000000420008
:101CD00001004100000041000100400001003F0000
:101CE00000003F0001003E0000003E0001003D00FA
:101CF00000003D0001003C0000003C0000003C00F2
:101D000001003B0000003B0001003A0000003A00E7
:101D100001003900000039000100380000003800DF
:101D200000003800010037000000370001003600D5
:101D300000003600000036000100350000003500CC
:101D400000003500010034000000340000003400C1
:101D500001003300000033000000330001003200B6
:101D600000003200000032000100310000003100AC
:101D700000003100010030000000300000003000A1
:101D800001002F0000002F0000002F0000002F0096
:101D900001002E0000002E0000002E0001002D008A
:101DA00000002D0000002D0000002D0001002C007F
:101DB00000002C0000002C0000002C0001002B0073
:101DC00000002B0000002B0000002B0001002A0067
:101DD00000002A0000002A0000002A00010029005B
:101DE000000029000000290000002900000029004F
:101DF0000100280000002800000028000000280042
:101E00000000280001002700000027000000270034
:101E10000000270000002700010026000000260027
:101E2000000026000000260000002600010025001A
:101E3000000025000000250000002500000025000E
:101E40000000250001002400000024000000240000
:101E500000002400000024000100230000002300F3
:101E600000002300000023000000230000002300E6
:101E700000002300010022000000220000002200D8
:101E800000002200000022000000220001002100CA
:101E900000002100000021000000210000002100BE
:101EA00000002100000021000100200000002000AF
:101EB00000002000000020000000200000002000A2
:101EC000000020000000200001001F0000001F0093
:101ED00000001F0000001F0000001F0000001F0086
:101EE00000001F0001001E0000001E0000001E0078
:101EF00000001E0000004D383420582059205A2080
:101F00004500627573793A20706175736564206667
:101F10006F7220696E7075740A00627573793A2069
:101F200070617573656420666F7220757365720ADF
:101F300000627573793A2070726F63657373696EAE
:101F4000670A004B494C4C45442E20004B494C4CF1
:101F500020636175736564206279204B494C4C2085
:101F6000627574746F6E2F70696E0A004B494C4C29
:101F700045442E20004B494C4C20636175736564C9
:101F800020627920746F6F206D75636820696E61BF
:101F900063746976652074696D65202D20637572A0
:101FA00072656E7420636F6D6D616E643A200050CF
:101FB0006C65617365207265736574005052494E9B
:101FC0005445522048414C544544005072696E7447
:101FD00065722068616C7465642E206B696C6C2876
:101FE000292063616C6C6564210A00656E717565FA
:101FF0007565696E6720220000008C4300000000B8
:102000000000000000004842000048420000A041DB
:10201000000000005761726E696E673A20486F6D6C
:10202000696E672042756D702044697669736F72BE
:10203000203C20310A000202040000A0400000A061
:10204000400000004000008C430000C8430000C86E
:102050004301FFFF10000000F03F00006265640ACA
:10206000002C2073797374656D2073746F707065C4
:102070006421204865617465725F49443A200048D4
:10208000656174696E67206661696C6564004865A6
:102090006174696E67206661696C6564004572727F
:1020A0003A204D494E54454D50004D494E54454DF2
:1020B0005020747269676765726564004572723A90
:1020C000204D415854454D50004D415854454D50B8
:1020D0002074726967676572656400001C1F1111C6
:1020E0001F00000006191803130C00040E1F041C27
:1020F000000000000E1315110E00001C101817052B
:10210000060500040A0A0A0A11110E0C12120C002C
:10211000000000001F1511151F0000526573656E49
:10212000643A20006F6B00002FAE30AF11241FBE49
:10213000CFEFD1E2DEBFCDBF00E00CBF13E0A0E0E7
:10214000B2E0E4E8F9E701E00BBF02C007900D92AE
:10215000A235B107D9F722E1A2E5B3E001C01D9293
:10216000A133B207E1F710E1C5E9D0E100E006C014
:1021700021970109802FFE010E942BBCC439D10791
:1021800080E00807A9F70E942FA90C94B1BC0C9419
:1021900000002F923F924F925F926F927F928F92A8
:1021A0009F92AF92BF92CF92DF92EF92FF920F93E6
:1021B0001F93CF93DF93CDB7DEB7CA57D1090FB6C0
:1021C000F894DEBF0FBECDBF0091920820E6029FBB
:1021D000800111240E5E184F8091FF0880FF1AC005
:1021E000EEE3F4E184917F013FEFE31AF30A8111FA
:1021F00002C0780104C00E94B92EF701F3CFD701C5
:102200008D917D01882319F00E94B92EF8CF8AE0C4
:102210000E94B92E81E090E09093151180931411E3
:1022200010927D0310927C038FE3809380031092C1
:102230007F0310927E0310926C0310926D03109234
:102240006E0310926F03F80180810F5F1F4F803281
:10225000D1F38E34B1F4818190ED980F9A3020F053
:102260008D3211F08B3269F43296DF0131962C9168
:1022700020532A30D0F3CD01FC0101962081203279
:10228000D9F3F0931C11E0931B117F01BFEFEB1A00
:10229000FB0A10816AE270E0C7010E9479BC0097D6
:1022A00031F0FC01319780818032E1F311821D34DD
:1022B00029F0143519F0173409F0CEC0F7018081E8
:1022C0002FEFE21AF20A8032C9F380538A3008F005
:1022D000C3C01093800320917E0330917F034AE0B6
:1022E0003196429FC001439F900D1124DF01119749
:1022F0002C91022E000C330B20533109280F391F6B
:10230000808180538A3060F330937F0320937E0373
:10231000DF0131968C918032D9F31D3451F0009158
:102320001B1160917C0370917D0388248394912C10
:1023300055C02E31310591F03CF42731310571F053
:102340002C31310561F70AC02537310544F32737B1
:10235000310524F0203A43E0340709F7B0937D03B8
:10236000A0937C0379C0413209F442C0EFEBE40F43
:10237000EA3108F05DC0DC017D015D915032E1F38E
:10238000C701A0EDA50FAA3008F046C0DC01EE2E73
:10239000F12C6701F3E0D594C794FA95E1F7A60113
:1023A00044595C4F6A014E2F4770F40102C0EE0F92
:1023B000FF1F4A95E2F7AF01F6015081452B40839C
:1023C0001097A1F1A01BA7014E5A5C4FFA01A08300
:1023D000DC014C9141544A3180F5DC01CD0101967C
:1023E0004C914111C0CF70937D0360937C0334C046
:1023F0001D3409F0BBCF2032310509F0B7CF9093DF
:102400007D0380937C0363E270E00E9479BC0097B7
:1024100019F1DC011C9220C0A3EDA50FA23008F435
:10242000B5CF5B3211F00C941627B0CFA0E0CBCF24
:102430006115710569F6BD01CBCFAD011196FA01A9
:10244000908190539A30C8F3CA014F5F5F4FFC01EF
:10245000A081A032C9F3C1CF809180038D3409F4EB
:10246000C4C4843511F40C94BC26873411F00C9448
:10247000F82680917E0390917F038430910509F4C2
:1024800093C25CF497FF02C00C940F272091730253
:10249000823091050CF0CDC014C08A35910509F445
:1024A000F3C32CF44C9709F4C5C20C940F278B3559
:1024B000910509F4EDC38C35910509F4EEC30C9434
:1024C0000F27222311F40C940F270E94392E80919C
:1024D0000E02882321F08CE694E00E9464960E940C
:1024E000AE2E8091FF0883FD53C0C0907804D09039
:1024F0007904E0907A04F0907B0420918904309173
:102500008A0440918B0450918C04C701B6010E944B
:1025100023B5882309F43CC08091F608811138C0A6
:102520006091F4087091F508072E000C880B990B48
:102530000E9429B59B01AC016091940870919508A7
:1025400080919608909197080E9423B587FF20C03C
:10255000C0928904D0928A04E0928B04F0928C0499
:10256000EEE3F4E184918F010F5F1F4F882321F088
:102570000E94B92EF801F6CFE9EDF1E084918F01C8
:102580000F5F1F4F882321F00E94B92EF801F6CF6C
:1025900020916C0430916D0440916E0450916F0451
:1025A00060917D0470917E0480917F0490918004FD
:1025B0000E9423B581111DC02091700430917104D7
:1025C000409172045091730460918104709182046F
:1025D00080918304909184040E9423B5811109C0E5
:1025E0006091110270911202809113029091140275
:1025F0001AC060910F0270911002072E000C880B18
:10260000990B0E9429B5209111023091120240913C
:102610001302509114020E9488B52AE037ED43E27C
:102620005CE30E9488B50E94412B0E94372B0C94DA
:102630000F27222311F40C940F2711E0029709F0C1
:1026400010E00E94392E19821A821B821C821D8280
:102650001E821F82188682E50E942D2E882309F48F
:1026600054C10E94552D6B017C0120917D04309155
:102670007E0440917F04509180042BAF3CAF4DAF5E
:102680005EAF8090810490908204A0908304B0900B
:10269000840480916C0490916D04A0916E04B091BB
:1026A0006F0423968CAF9DAFAEAFBFAF2397209141
:1026B0007004309171044091720450917304279614
:1026C0002CAF3DAF4EAF5FAF279720E030E0A901C0
:1026D000C701B6010E9423B5882309F42CC12BAD94
:1026E0003CAD4DAD5EAD23966CAD7DAD8EAD9FAD79
:1026F00023970E9423B581110DC0A501940127964F
:102700006CAD7DAD8EAD9FAD27970E9423B588231C
:1027100009F411C120E030E0A901C701B6010E940F
:1027200023B5881F8827881F18130BC080E090E00E
:10273000A0E8BFE367968CAF9DAFAEAFBFAF679722
:102740000AC020E030E040E85FEB67962CAF3DAF79
:102750004EAF5FAF67972BAD3CAD4DAD5EAD2396F1
:102760006CAD7DAD8EAD9FAD23970E9423B92F96A2
:102770006CAF7DAF8EAF9FAF2F97A50194012796C9
:102780006CAD7DAD8EAD9FAD27970E9423B963964A
:102790006CAF7DAF8EAF9FAF63972F962CAD3DADE5
:1027A0004EAD5FAD2F97CA01B9010E9488B52B01CC
:1027B0003C0163962CAD3DAD4EAD5FAD6397CA0154
:1027C000B9010E9488B59B01AC01C301B2010E940E
:1027D00024B90E948FBB2B966CAF7DAF8EAF9FAF9D
:1027E0002B9720E030E040E05FE30E9488B52B01AA
:1027F0003C01A7019601C701B6010E9488B56B0193
:102800007C01A3019201C301B2010E9488B59B0122
:10281000AC01C701B6010E9423B90E948FBB9B0186
:10282000AC0167966CAD7DAD8EAD9FAD67970E9494
:1028300088B56B017C0123962CAD3DAD4EAD5FADEF
:1028400023976BAD7CAD8DAD9EAD0E9424B920E089
:1028500030E040E05FE30E9488B52B013C016396C5
:102860006CAD7DAD8EAD9FAD639790582B962CAD22
:102870003DAD4EAD5FAD2B970E9400BA9B01AC0100
:10288000C701B6010E9488B59B01AC01C301B2012A
:102890000E9424B92BAD3CAD4DAD5EAD0E9423B975
:1028A00069837A838B839C8327962CAD3DAD4EAD97
:1028B0005FAD2797C501B4010E9424B920E030E044
:1028C00040E05FE30E9488B52B013C012B962CADC4
:1028D0003DAD4EAD5FAD2B972F966CAD7DAD8EAD02
:1028E0009FAD2F970E9400BA9B01AC01C701B601B2
:1028F0000E9488B59B01AC01C301B2010E9424B9BA
:10290000A50194010E9423B912C089E40E942D2ED2
:10291000882331F00E94552D69837A838B839C83B1
:102920008AE40E942D2E882331F00E94552D6D835C
:102930007E838F83988720E030E0A90169817A81C6
:102940008B819C810E9423B581110BC020E030E077
:10295000A9016D817E818F8198850E9423B588238E
:1029600049F0612FCE0101960E9465440E94AE2E6F
:102970000C940F27E5E7FDE084918F010F5F1F4F57
:10298000882321F00E94B92EF801F6CFE4EFF1E0A0
:1029900084918F010F5F1F4F882311F40C940F2730
:1029A0000E94B92EF801F4CF80E50E942D2E8823D5
:1029B00029F00E94152D6B017C0103C0C12CD12C84
:1029C000760183E50E942D2E882361F00E94552D0B
:1029D00020E030E04AE754E40E9488B50E946DBAD6
:1029E0006B017C010E94B6A080912C02811105C070
:1029F00060E08AE092E00E9496570E94AE2E80919D
:102A00001D1190911E11A0911F11B0912011C80E9F
:102A1000D91EEA1EFB1E0E94EC52DC01CB018C1970
:102A20009D09AE09BF09B7FD02C00C940F270E9493
:102A30005F98F1CF0E94B6A080911102909112028E
:102A4000A0911302B09114028093780390937903BC
:102A5000A0937A03B0937B0380910F0290911002B0
:102A6000909377038093760384E690E0909310022E
:102A700080930F020E94AE2E81E08093E10688E5EC
:102A80000E94882DA82E89E50E94882D082F8AE5AE
:102A90000E94882DB82EA11005C0011105C011E0BB
:102AA000182705C0011102C010E001C0182F80E1F5
:102AB000EDE7F4E0ACE6B4E001900D928A95E1F721
:102AC000111105C0A11003C0002309F4B0C020E01B
:102AD00030E040EA50E460912D1170912E11809108
:102AE0002F11909130110E9424B96B017C016093E9
:102AF00074047093750480937604909377044090E7
:102B00008504509086046090870470908804A30127
:102B100092010E944ABB18160CF076C080911102F7
:102B200090911202A0911302B09114028BAF9CAF4E
:102B3000ADAFBEAFA7019601C301B2010E9423B59C
:102B400087FF18C0ECE0F0E285919591A591B491D2
:102B50008093110290931202A0931302B093140277
:102B6000C0928504D0928604E0928704F092880493
:102B70000E945A2B85E595E5A5E0B3E48093110208
:102B800090931202A0931302B09314020E945A2B46
:102B9000C0907404D0907504E0907604F0907704AF
:102BA000A701960160918504709186048091870445
:102BB000909188040E944ABB1816C4F4ECE0F0E23D
:102BC00085919591A591B4918093110290931202F1
:102BD000A0931302B0931402C0928504D09286048D
:102BE000E0928704F09288040E945A2B0E94B6A0BB
:102BF0002BAD3CAD4DAD5EAD209311023093120272
:102C00004093130250931402111105C0A11003C088
:102C1000011107C00CC080E090E00E94F6961123DD
:102C2000B9F381E090E00E94F696111102C0BB203A
:102C300021F082E090E00E94F6960E944C2C809158
:102C4000180C8093E1068091780390917903A0910C
:102C50007A03B0917B038093110290931202A093A8
:102C60001302B093140280917603909177039093AE
:102C7000100280930F020E94AE2E83E08093150213
:102C80000E945A330C940F27109275030C940F274F
:102C900081E0809375030C940F2785E40E942D2E0C
:102CA000B82E811102C00E94B6A038E7832E32E010
:102CB000932E4DE7C42E44E0D42E51E3E52E51E18E
:102CC000F52E00E010E0A12CD4018D914D010E9461
:102CD0002D2E8823F1F1F60120813181428153812B
:102CE000E8962FAFE897E9963FAFE997EA964FAF9E
:102CF000EA97EB965FAFEB970E94552DD6016D9347
:102D00007D938D939C931397E8962FADE897E99662
:102D10003FADE997EA964FADEA97EB965FADEB973B
:102D200003301105B1F00E9423B99B01AC01F701FA
:102D300060817181828193810E9424B9D7016D9352
:102D40007D938D939C931397C8010E94792BAA249D
:102D5000A3940F5F1F4FB4E0CB0ED11CE4E0EE0E46
:102D6000F11C0430110509F0AFCFAA2019F00E9420
:102D70004C2C37C0BB20A9F1C0908904D0908A04A4
:102D8000E0908B04F0908C042091E4083091E508E9
:102D90004091E6085091E708C701B6010E9488B546
:102DA0000E9455BB60935109709352098093530957
:102DB00090935409C701B6010E9468BA2FB7F894DE
:102DC0006093591170935A1180935B1190935C1129
:102DD0002FBF10924109109242091092430910929C
:102DE00044090E945A330C940F2780917E039091DE
:102DF0007F038037910509F4FBC50CF0B3C08B3419
:102E0000910509F410C50CF066C08831910509F4EC
:102E100064C2ECF58231910509F412C7F4F497FF0E
:102E200002C00C940F27823091050CF474C14197B5
:102E300011F00C940F2760E08AE492E00E9496570C
:102E40005F988A989FB7F894809108018E7F80934D
:102E500008019FBF12980C940F278531910509F442
:102E600025C23CF4449711F00C940F27E2E6F2E0FF
:102E7000DAC18631910509F41DC2479711F00C940F
:102E80000F2780917C0390917D03FC011DC28C3142
:102E9000910509F477C264F48A31910509F428C2D6
:102EA0000CF034C2109285090E944B440C940F27F9
:102EB0008F31910509F4D2C32CF44E9709F46CC2FA
:102EC0000C940F278032910509F47EC38A9709F488
:102ED0006BC40C940F278C35910509F403C70CF5CE
:102EE0008135910509F488C664F48D34910509F49F
:102EF000A2C40CF49CC48035910509F457C60C9407
:102F00000F278335910509F496C60CF490C68435D5
:102F1000910509F495C68535910509F4C8C60C9448
:102F20000F278B36910509F42FC664F48936910575
:102F300009F4A5C50CF009C68836910509F47FC4CB
:102F40000C940F278D36910509F4E1C50CF44CC59E
:102F50008E36910509F4C9C48F36910509F4D8C499
:102F60000C940F27833D910511F40C9484210CF0EF
:102F700068C08C38910509F46BC54CF5853791050F
:102F800009F4CEC774F48237910509F434C70CF400
:102F900033C58337910511F00C940F27E9EAF4E06B
:102FA00030C78737910509F4FAC70CF4C1C78837D1
:102FB000910511F40C9435208937910511F00C948A
:102FC0000F271092E1061092180C0C940F27893CE1
:102FD000910511F40C94E12084F48B39910509F4E6
:102FE0006BC5883C910511F40C94992081399105A9
:102FF00011F00C940F270C943B208C3C910511F49C
:103000000C94172184F48B3C910511F00C940F273C
:1030100091E2E92E94E0F92E08E712E024E0D22EA6
:10302000D00E0C9408218D3C910511F40C94812153
:103030008E3C910511F00C940F270E940A340C94D9
:103040000F278039F1E09F0711F40C94942584F543
:103050008C3231E0930711F40C94D7218CF48D3D20
:10306000910511F40C949421823E910511F40C9475
:10307000AD218C3D910511F00C940F270C94872104
:103080008E3251E0950711F40C949E2214F40C94A6
:1030900000228F32B1E09B0711F40C94F2228336A8
:1030A000914011F00C940F27E5E7FDE00C94A52664
:1030B000853FF1E09F0711F40C949A26ACF48C3A0A
:1030C00031E0930711F40C949725843F41E0940775
:1030D00011F40C9481268A39914011F00C940F2739
:1030E0000E94562C0C940F27873FA1E09A0711F4F9
:1030F0000C94A32614F40C94A026803AE3E09E07D7
:1031000009F49FC2873E934011F00C940F270E9450
:10311000B72D0C940F27A0907C03B0907D0380E521
:103120000E942D2E882359F00E94152D6B017C01E1
:1031300011E0672B682B692B31F410E004C010E01C
:10314000C12CD12C760183E50E942D2E8823F1F02D
:103150000E94552D20E030E04AE754E40E9488B5F3
:103160000E946DBA6B017C01111112C0672B682B94
:10317000692B71F4A114B10459F0D5018C91882305
:1031800039F061E0C5010E94B45707C0112391F3E3
:1031900060E087E392E00E94965783E090E090938E
:1031A00015118093141181E08093C0060E94B6A08F
:1031B0000E94AE2EC114D104E104F104E9F0809123
:1031C0001D1190911E11A0911F11B0912011C80ED8
:1031D000D91EEA1EFB1E0E94EC52DC01CB018C19A9
:1031E0009D09AE09BF09B7FF1AC08091C0068823A8
:1031F000B1F00E945F98EFCF8091C006882319F04C
:103200000E945F98F9CF8091850960E0882319F0CA
:1032100088E292E002C083E192E00E949657109209
:10322000C0060C940F2784918F010F5F1F4F8823D6
:1032300021F00E94B92EF801F6CF10920B0C1092DB
:103240000A0C40E050E0BA0186EB99E00E94655B11
:103250008BE1E6EBF9E0DE01159601900D928A957F
:10326000E1F78091B4099091B5099C838B8382EA40
:1032700092E09A83898340E050E0BE016F5F7F4F08
:1032800081E593E00E94BA83CE0101960E94FA97ED
:10329000E3E5F2E084918F010F5F1F4F882311F463
:1032A0000C940F270E94B92EF801F4CF0E947442AB
:1032B0000C940F2710928509109286090C940F2701
:1032C000203209F41082319620812111F9CF40E09B
:1032D00061E00E94413F0C940F278091860988236A
:1032E00019F081E0809385090E940B440C940F270C
:1032F00080918609882311F40C940F2783E50E949E
:103300002D2E81110C9420270C940F278091860973
:10331000882351F1E3E7F2E084918F010F5F1F4FA3
:10332000882321F00E94B92EF801F6CF6091010C9C
:103330007091020C8091030C9091040C4AE00E9461
:103340004E2F8FE20E94B92E6091FD0B7091FE0B03
:103350008091FF0B9091000C4AE00E944E2F8AE072
:103360000E94B92E0C940F27E5E8F2E084918F01BA
:103370000F5F1F4F882311F40C940F270E94B92E62
:10338000F801F4CF40E060E080917C0390917D03F0
:103390000E94413F0C940F2780918609882311F4E5
:1033A0000C940F2780E59BE00E941D5F80E59BE069
:1033B0000E945E5F1092840910928309E0907C0362
:1033C000F0907D0380918609882311F40C940F27D7
:1033D0000E94CB811D8218861C821B8282EA92E0A9
:1033E0009A83898382EB99E09093D2098093D109E3
:1033F000F70180818F3209F068C06FE270E0C70189
:103400000E9479BC8C010F5F1F4F9E012F5F3F4FC1
:1034100049010115110509F45EC06FE270E0C801B1
:103420000E9479BC6C01009709F456C0081719076F
:1034300008F052C05C01A01AB10AA501B801CE0182
:1034400080960E94A2BCE0E2F0E0EC0FFD1FEA0DC6
:10345000FB1D10828E01005E1F4FD8018D918D01E2
:10346000882319F00E94B92EF8CF8AE00E94B92E65
:103470006091D1097091D2096115710511F06C5FED
:103480007F4F21E0AE01405E5F4FCE0105960E9466
:103490006561811112C0BE01605E7F4F8CEB92E0CE
:1034A0000E9469738EE20E94B92E8AE00E94B92EB2
:1034B000C4010E94FA970C940F279092D20980922F
:1034C000D10986010F5F1F4FA4CF83ED99E0909340
:1034D000D2098093D10987016091D1097091D209F5
:1034E0006115710511F06C5F7F4F18A21BA222E0DD
:1034F000A801CE0180960E946561811102C0F12C65
:103500001EC0CE0180960E9439818823C1F36CA52C
:103510007DA58EA59FA541E00E94125D882379F3C9
:10352000E8A9B0E2EB9FF0011124E257FB4F30977E
:1035300031F385EE80831BA20E94D45CF82ECE016D
:1035400080960E94A82EFF2009F1E6E9F2E084911E
:103550007F012FEFE21AF20A882321F00E94B92E90
:10356000F701F5CFD8018D918D01882319F00E94C4
:10357000B92EF8CF8AE00E94B92E1092010C109259
:10358000020C1092030C1092040C18C0E4EAF2E052
:1035900084917F01BFEFEB1AFB0A882321F00E9480
:1035A000B92EF701F5CFF80181918F01882319F029
:1035B0000E94B92EF8CF8EE20E94B92ECE0101965C
:1035C0000E94FA970C940F278091850981110E941F
:1035D000B6A0E0907C03F0907D0380E50E94882DEA
:1035E000182F882319F00E94462D182F80918609E4
:1035F000882311F40C940F27412F61E0C7010E942A
:10360000413F83E50E942D2E882381F00E94252DC5
:10361000AB01BC014093010C5093020C6093030C6E
:103620007093040C80E59BE00E94655B80918609A5
:10363000882319F081E08093850911110C940F27DC
:1036400053CE80917C0390917D0321E020938409E7
:1036500040E060E00E94413F0C940F270E94848369
:103660002CE3C22ED12CE12CF12CA70196010E9453
:10367000E8B8762E672ECA01B901A70196010E940B
:10368000E8B86B017C01CA01B90128E130E040E0F3
:1036900050E00E94E8B84B015C01C9016DE671E0A1
:1036A0000E94E8BB8E010F5F1F4F6115710599F0F5
:1036B0006F927F92DF92CF929F928F929F938F9380
:1036C0007F936F9388EF92E09F938F931F930F9355
:1036D0000E94BCB412C00097B1F06F927F92DF924B
:1036E000CF929F928F929F938F9388EE92E09F93B9
:1036F0008F931F930F930E94BCB40FB6F894DEBF54
:103700000FBECDBF36C081149104A104B10479F07D
:103710006F927F92DF92CF929F928F928CED92E088
:103720009F938F931F930F930E94BCB4E6CFC11455
:10373000D104E104F10469F06F927F92DF92CF929D
:1037400084ED92E09F938F931F930F930E94BCB4DC
:10375000D4CF6F927F9280ED92E09F938F931F93CF
:103760000F930E94BCB40F900F900F900F900F908A
:103770000F9060E0C8010E94B457EEE3F4E1849139
:103780007F01BFEFEB1AFB0A882321F00E94B92EBC
:10379000F701F5CFB8018CE093E00E9469738AE0ED
:1037A0000E94B92E0C940F2783E50E942D2E8823AA
:1037B00011F40C940F270E94352DE82E80E50E940D
:1037C0002D2E882339F00E94252D8B0177FF04C010
:1037D0000C940F270DE010E0902FECE4F6E088E267
:1037E0008E0F2491921729F031968E13FACF0C94F4
:1037F0003027E5E7FDE084918F010F5F1F4F88239D
:1038000021F00E94B92EF801F6CFE9E1F3E08491AE
:103810008F010F5F1F4F882311F40C940F270E9414
:10382000B92EF801F4CF0E940B440C940F270E948C
:103830004B440C940F270E94D6810C940F2788E6E6
:1038400090E00E94B42F81110C940F278091FF0803
:1038500083FF02C00C940F2783E50E942D2E88233E
:1038600009F43FC00E94552D0E9468BA709310045D
:1038700060930F0480E00E94A99D0E94552D20E0D6
:1038800030E0A9010E9423B518163CF00E94D681B1
:1038900060E08FE293E00E9496570E94552D2091A0
:1038A00094083091950840919608509197080E948D
:1038B0004ABB1816B4F489EC92E09F938F938091E1
:1038C000700390E001969F938F9388E293E09F931B
:1038D0008F931F920E94F0430FB6F894DEBF0FBE85
:1038E000CDBF0E94FFAD0C940F278EE40E942D2EB9
:1038F000882311F40C940F270E94252D6093271222
:10390000709328128093291290932A120C940F27F7
:1039100083E50E942D2E882319F00E94352D01C0C9
:1039200080E08093FF08EEE3F4E184918F010F5F64
:103930001F4F882321F00E94B92EF801F6CFE2E54F
:10394000F3E084918F010F5F1F4F882321F00E94C5
:10395000B92EF801F6CF8091FF088823A1F194E4F5
:10396000C92E93E0D92EE12CF12C20E08091FF08A4
:1039700090E00E2C02C0959587950A94E2F780FF9F
:1039800017C0BB24B394B20E222319F08CE20E941C
:10399000B92EF60125913491F901849189010F5FC7
:1039A0001F4F882321F00E94B92E9801F5CF2B2DAF
:1039B000FFEFEF1AFF0A32E0C30ED11C45E0E41618
:1039C000F104A1F60CC0EEE4F3E084918F010F5FE7
:1039D0001F4F882321F00E94B92EF801F6CF8AE00C
:1039E0000E94B92E0C940F27109229020C940F27D5
:1039F00089E593E00E94139883E50E942D2E882389
:103A000069F00E94352D80936E028D3310F40C9472
:103A10000F278CE380936E020C940F27EEE3F4E102
:103A200084918F010F5F1F4F882321F00E94B92ED0
:103A3000F801F6CF40916E0250E060E070E082E65F
:103A400093E00E946B958AE00E94B92E0C940F2798
:103A50008091FF0883FF02C00C940F2783E50E942A
:103A60002D2E882311F40C940F270E94552D0E94AF
:103A700068BA70935E1160935D110C940F2789E60C
:103A800090E00E94B42F811111C0E9E6F3E0849127
:103A90008F010F5F1F4F882321F00E94B92EF8017C
:103AA000F6CF0E9460348AE00E94B92E1092151160
:103AB000109214110C94A32A83E50E942D2E8823C2
:103AC00011F40C940F270E94352D80931A118D3319
:103AD00018F08CE380931A110E94EC526B017C0168
:103AE00020911A1130E0A8EEB3E00E9414B9DC0175
:103AF000CB018C0D9D1DAE1DBF1D809316119093A3
:103B00001711A0931811B09319110C940F278DE67B
:103B100090E00E94B42F81110C940F278091FF0830
:103B200083FF02C00C940F2783E50E942D2E24965C
:103B30008FAF249781110C94452782E50E942D2E8A
:103B400081110C9445270C940F2783E50E942D2E9C
:103B5000882339F00E94252D8B016F3F710519F0E4
:103B600010F00FEF10E080E50E942D2E811106C0AD
:103B700010930E0400930D040C940F270E94352D12
:103B800081110C940F27F4CF80E50E942D2E811116
:103B900006C010920E0410920D040C940F270E9480
:103BA000252D672B11F00C940F27F3CF83E50E948E
:103BB000882D8823A9F080911602811103C0E5EBBE
:103BC000F3E002C0EFEAF3E084918F010F5F1F4F33
:103BD000882311F40C940F270E94B92EF801F4CF1A
:103BE000269A2E9881E08093160260E08AE993E09D
:103BF0000E9496570C940F270E94F49D0E94B6A035
:103C00000E94029810920E0410920D0468EE73E068
:103C100080E090E00E940357269A2E9A1092160296
:103C200060E08BEB93E00E9496570C940F27109264
:103C300074030C940F2781E0809374030C940F2776
:103C400083E50E942D2E8823A1F00E94552D20E0AF
:103C500030E04AE754E40E9488B50E946DBA609350
:103C60006F027093700280937102909372020C94B1
:103C70000F2788E50E94882D81110C94D12889E5B1
:103C80000E94882D81110C94D1288AE50E94882DEC
:103C900081110C94D12885E40E94882D81110C9407
:103CA000D1280E94B6A00E9402980C940F2783E5A9
:103CB0000E94882D882311F40C940F270E94552D03
:103CC00020E030E04AE754E40E9488B50E946DBAD3
:103CD00060932111709322118093231190932411EA
:103CE0000C940F27B8E7CB2EB2E0DB2E18EDE12EB7
:103CF00018E0F12E10E0D6018D916D010E94882D03
:103D0000882309F46DC0133009F063C00E94552D5B
:103D10004B015C0120E030E040EA51E40E9423B511
:103D200087FF4EC0A50194016091E4087091E508F9
:103D30008091E6089091E7080E9400BA2B013C01AF
:103D40009B01AC016091D4087091D5088091D60890
:103D50009091D7080E9488B56093D4087093D508D5
:103D60008093D6089093D708A301920160912D0407
:103D700070912E0480912F04909130040E9488B598
:103D800060932D0470932E0480932F04909330043D
:103D900060910C0970910D0980910E0990910F09A5
:103DA0000E9427B5A30192010E9488B50E946DBAB6
:103DB00060930C0970930D0980930E0990930F097D
:103DC0008092E4089092E508A092E608B092E70895
:103DD00007C00E94552DF70160837183828393830E
:103DE0001F5FF4E0EF0EF11C143009F084CF0E9445
:103DF000BE740C940F270E94B6A00E945A330C94F4
:103E00000F2784918F010F5F1F4F882321F00E949D
:103E1000B92EF801F6CFEBE9F4E084918F010F5F42
:103E20001F4F882321F00E94B92EF801F6CFE4E855
:103E3000F4E084918F010F5F1F4F882321F00E94CF
:103E4000B92EF801F6CFE4E7F4E084918F010F5F1B
:103E50001F4F882321F00E94B92EF801F6CFE3E628
:103E6000F4E084918F010F5F1F4F882321F00E949F
:103E7000B92EF801F6CFE2E5F4E084918F010F5FEF
:103E80001F4F882321F00E94B92EF801F6CFE3E4FA
:103E9000F4E084918F010F5F1F4F882321F00E946F
:103EA000B92EF801F6CFEEE2F4E084918F010F5FB6
:103EB0001F4F882321F00E94B92EF801F6CFE8E1C8
:103EC000F4E084918F010F5F1F4F882321F00E943F
:103ED000B92EF801F6CFE3E0F4E084918F010F5F93
:103EE0001F4F882321F00E94B92EF801F6CFE6EE8D
:103EF000F3E084918F010F5F1F4F882321F00E9410
:103F0000B92EF801F6CFEEECF3E084918F010F5F4C
:103F10001F4F882309F483C70E94B92EF801F5CFFB
:103F200060E080917C0390917D030E94B45777C735
:103F300085E40E94882D882381F00E94462D8823E5
:103F400061F0EEE3F4E184918F010F5F1F4F88234E
:103F500021F00E94B92EF801F6CF81E40E94882D4D
:103F6000882381F00E94462D882361F0E2E7F5E086
:103F700084918F010F5F1F4F882321F00E94B92E7B
:103F8000F801F6CF00917C0310917D03D8018D914B
:103F90008D01882309F423CD0E94B92EF7CFEEE8D6
:103FA000F5E084918F010F5F1F4F882321F00E945D
:103FB000B92EF801F6CFE6E8F5E084918F010F5FA6
:103FC0001F4F882321F00E94B92EF801F6CF649B81
:103FD00003C006EB12E002C00BEB12E0F801819186
:103FE0008F01882319F00E94B92EF8CF8AE00E9431
:103FF000B92EEEE7F5E084918F010F5F1F4F882304
:1040000021F00E94B92EF801F6CF8091030181FFC3
:1040100003C006EB12E002C00BEB12E0D8018D9159
:104020008D01882319F00E94B92EF8CF8AE00E94F2
:10403000B92EE6E7F5E084918F010F5F1F4F8823CB
:1040400021F00E94B92EF801F6CF4B9B03C006EB7E
:1040500012E002C00BEB12E0F80181918F0188237E
:1040600009F4BDCC0E94B92EF7CF81E08093E10620
:104070008093180CD4C683E50E942D2E882319F056
:104080000E94252D02C060E070E08B0111270230F4
:104090001105CCF0E5E7FDE084918F010F5F1F4F24
:1040A000882321F00E94B92EF801F6CFE8EAF5E066
:1040B00084918F010F5F1F4F882309F4B0C60E94BF
:1040C000B92EF801F5CF88E40E942D2E8823A9F09F
:1040D0000E94252DF801EE0FFF1FEF5EFB4F71834D
:1040E0006083653021E0720714F064E071E077FFCF
:1040F00002C060E070E07183608386E40E942D2E30
:10410000882309F48CC60E94252D000F111FF80189
:10411000EB5EFB4F718360836F3F710519F014F004
:104120006FEF70E077FF02C060E070E07183608342
:1041300076C688EC90E00E94B42F811170C684E4AA
:104140000E94882D8823D1F10E94552D11E020E096
:1041500030E0A9010E9423B5811101C010E0109345
:10416000EC08112359F10091700310E00E94552DC5
:10417000000F111F000F111FF801E851F74F608366
:1041800071838283938320E030E0A9016091E80885
:104190007091E9088091EA089091EB080E9423B59C
:1041A00081110CC080E090E0A0E4B0E48093E808C6
:1041B0009093E908A093EA08B093EB080E9474A6D4
:1041C0002EC631E3E32E34E0F32E08E712E044E09C
:1041D000D42ED00ED8018D918D010E94882D882378
:1041E00049F00E94552D0E946DBAF70160837183DA
:1041F00082839383F4E0EF0EF11CD012EBCF0E9488
:1042000091730DC6F4E0EF0EF11CD01609F407C649
:10421000D8018D918D010E94882D882399F30E94E9
:10422000552DF7016083718382839383EBCF83E500
:104230000E94882D8823D9F00E94552DAB01BC0126
:104240004093490450934A0460934B0470934C0488
:104250004093410450934204609343047093440498
:1042600084E296E00E9433738AE00E94B92E80E5D2
:104270000E94882D882399F00E94552DAB01BC0126
:104280004093490450934A0460934B0470934C0448
:1042900087E096E00E9433738AE00E94B92E82E59F
:1042A0000E94882D882399F00E94552DAB01BC01F6
:1042B0004093450450934604609347047093480428
:1042C00088EE95E00E9433738AE00E94B92E84E55F
:1042D0000E94882D882309F4A2C50E94552DAB01A8
:1042E000BC01409341045093420460934304709393
:1042F00044048AEC95E00E9433738AE00E94B92E50
:104300008EC50E94D12D8BC50E94C02E88C583E525
:104310000E942D2E882309F482C50E94252D7093BA
:10432000100260930F027BC58DED90E00E94B42FC8
:10433000811175C583E50E942D2E882309F46FC570
:104340000091700310E00E94252D000F111FF8014D
:10435000E65DFD4F7183608362C580E50E94882D14
:10436000882309F45CC50E94252DF62EC62ED72E73
:1043700083E50E942D2E882321F00E94252D8B019C
:1043800002C00FEF1FEFC8010196039708F047C561
:10439000D7FC45C5ECE4F6E088E28E0F9491F9165F
:1043A00009F43DC531968E13F9CF0C947C2A83E530
:1043B0000E942D2E882319F00E94252D02C064E052
:1043C00071E079A368A380E50E942D2E882339F03F
:1043D0000E94252D693823E1720730F402C068EE8F
:1043E00073E07A83698304C088E893E19A838983C0
:1043F000BE01605E7F4FCE0101960E94BC430FC597
:1044000085E40E942D2E811110C080E50E94882D28
:10441000882391F00E94552D6093F8037093F9035F
:104420008093FA039093FB0307C00E94352D8823E5
:1044300061F3E5E7FDE071C089E40E94882D8823DF
:1044400081F00E94552D2CEA35EC47E25EE30E9494
:1044500088B5609308047093090480930A049093CC
:104460000B0484E40E94882D882381F00E94552D3E
:104470002CEA35EC47E25EE30E9400BA6093000448
:10448000709301048093020490930304EEE3F4E13B
:1044900084918F010F5F1F4F882321F00E94B92E56
:1044A000F801F6CF4091F8035091F9036091FA03B7
:1044B0007091FB038CE796E00E9433732CEA35EC95
:1044C00047E25EE3609108047091090480910A0458
:1044D00090910B040E9400BAAB01BC0188E796E002
:1044E0000E9416732CEA35EC47E25EE3609100040B
:1044F0007091010480910204909103040E9488B598
:10450000AB01BC0184E796E00E9416738AE00E942A
:10451000B92E85C40E94B92EF80184918F010F5FD6
:104520001F4F8111F7CF04ED12E0D8018D918D015D
:10453000882309F454CA0E94B92EF7CF83E50E945C
:10454000882D182F882371F00E94552D0E9468BA7B
:104550007093F5086093F40821E0672B09F020E0E0
:104560002093F60880E50E94882D882359F0209139
:10457000F4083091F508232B11F00E94462D80930A
:10458000F6084DC411114BC4EEE3F4E184918F01A0
:104590000F5F1F4F882321F00E94B92EF801F6CF3C
:1045A0008091F608811103C065EC72E002C068EBEF
:1045B00072E085E996E00E9469736091F408709159
:1045C000F50884E896E00E945073E0E8F6E08491F4
:1045D0008F010F5F1F4F882309F421C40E94B92E59
:1045E000F801F5CF85E40E942D2E882321F00E944A
:1045F000252D8B0102C000E010E083E40E942D2EE7
:10460000882339F00E94252DE3967FAF6EAFE397A4
:1046100006C0E5E0F0E0E396FFAFEEAFE39785E597
:104620000E94882DA8968FAFA897882329F00E9412
:10463000462DA8968FAFA89717FD07C0C12CD12C87
:10464000B6E1EB2EB3E4FB2E06C0C12CD12CACE8B6
:10465000EA2EA2E4FA2E83E50E942D2E882321F073
:104660000E94552D6B017C010115110511F410926A
:1046700070030E94EC524B015C01012B19F405EE12
:1046800012E00BC008EF12E0D8018D918D01882354
:1046900009F4A5C90E94B92EF7CFF80181918F01C5
:1046A000882319F00E94B92EF8CFC701B6010E94E5
:1046B00068BA072E000C880B990B0E9429B5289622
:1046C0006FAF28972C967FAF2C9760968FAF60972F
:1046D00064969FAF64978AE00E94B92E0E94F49D71
:1046E0008FE78093611181E080932902AD968CAEB3
:1046F0009DAEAEAEBFAEAD97E7968CAE9DAEAEAE04
:10470000BFAEE79768961FAE6897F0E46996FFAF73
:1047100069972CE16A962FAF6A9736E46B963FAFA4
:104720006B976C961FAE6C976D961FAE6D976E96DD
:104730001FAE6E976F961FAE6F97A7961CAE1DAEFD
:104740001EAE1FAEA797A3961CAE1DAE1EAE1FAE2B
:10475000A397C12CD12C7601FFE74F2E512C612C51
:10476000712C8FE790E0A0E0B0E023968CAF9DAF76
:10477000AEAFBFAF2397E1961CAE1DAE1EAE1FAE0F
:10478000E19791E0A9969FAFA99725961FAE1EAE1F
:104790002597212C312C00E010E0809129028823FC
:1047A00009F4BBC10E94EC526BAF7CAF8DAF9EAFE2
:1047B00080915F11882309F4C5C00E940C9E20904F
:1047C00094083090950800919608109197089101EF
:1047D000A8016C966FAD6C976D967FAD6D976E96D8
:1047E0008FAD6E976F969FAD6F970E9423B587FF31
:1047F0000CC06C962FAE6C976D963FAE6D976E9613
:104800000FAF6E976F961FAF6F979101A8016896D3
:104810006FAD689769967FAD69976A968FAD6A9715
:104820006B969FAD6B970E944ABB181664F468960E
:104830002FAE689769963FAE69976A960FAF6A97F1
:104840006B961FAF6B97A996AFADA99728962FAD22
:1048500028972C963FAD2C9760964FAD6097649645
:104860005FAD6497B101C801AA2309F451C00E9449
:104870004ABB18160CF066C04BAD5CAD6DAD7EAD9D
:10488000481959096A097B09DB01CA018858934113
:10489000A109B109B7FD56C023968CAD9DADAEAD53
:1048A000BFAD239784199509A609B709B595A795B2
:1048B0009795879580936111E1964CAF5DAF6EAF90
:1048C0007FAFE1972896BFAD28976C96BFAF6C97E6
:1048D0002C96EFAD2C976D96EFAF6D976096FFAD70
:1048E00060976E96FFAF6E9764962FAD64976F9644
:1048F0002FAF6F978BAD9CADADADBEADAD968CAF10
:104900009DAFAEAFBFAFAD97A9961FAEA9971AC026
:104910000E9423B587FF16C08BAD9CADADADBEAD7B
:10492000AD962CAD3DAD4EAD5FADAD97821B930BFB
:10493000A40BB50BAC01BD01485853416109710985
:1049400077FF55C420E030E040EA51E428966FAD8F
:1049500028972C967FAD2C9760968FAD60976496C4
:104960009FAD64970E9424B99B01AC01B101C801BD
:104970000E944ABB18166CF4E2E6F7E084918F01BE
:104980000F5F1F4F882309F44AC20E94B92EF80115
:10499000F5CF80E398EFAFEFBFEFE7962CAD3DADDD
:1049A0004EAD5FADE797821B930BA40BB50B2BAD00
:1049B0003CAD4DAD5EAD820F931FA41FB51FB7FD7B
:1049C0000FC00E9460348AE00E94B92E8BAD9CAD6E
:1049D000ADADBEADE7968CAF9DAFAEAFBFAFE797C5
:1049E0008BAD9CADADADBEAD880F991FAA1FBB1F8F
:1049F000AD962CAD3DAD4EAD5FADAD97821B930B2B
:104A0000A40BB50B88199909AA09BB0981389F44E1
:104A1000A241B10568F0E4E4F7E084918F010F5FF3
:104A20001F4F882309F4FBC10E94B92EF801F5CF6E
:104A300025964EAD5FAD2597E3968EAD9FADE3977E
:104A4000841795070CF066C0E7EEF6E084918F01BD
:104A50000F5F1F4F882321F00E94B92EF801F6CF77
:104A6000B701A60182ED96E00E9433738AE00E94AE
:104A7000B92EA3964CAD5DAD6EAD7FADA3978DEB1A
:104A800096E00E9433738AE00E94B92EA7964CAD3F
:104A90005DAD6EAD7FADA79788EA96E00E94337357
:104AA0008AE00E94B92EA896AFACA897AA2009F474
:104AB000B6C1C092F803D092F903E092FA03F092E3
:104AC000FB032CEA35EC47E25EE3A3966CAD7DADCB
:104AD0008EAD9FADA3970E9488B560930804709334
:104AE000090480930A0490930B042CEA35EC47E206
:104AF0005EE3A7966CAD7DAD8EAD9FADA7970E948E
:104B000000BA6093000470930104809302049093B0
:104B1000030485C10E94C45740CE809129028111AF
:104B20007EC10E94F49D7BC10E94B6A078C185EE33
:104B3000C82E86E0D82E9DE7E92E94E0F92E28E9CC
:104B4000222E28E0322E00E010E091012859384052
:104B50003CAF2BAFD1018D911D01882309F4A0C07A
:104B6000F7014080518062807380F801E95EFD4F5B
:104B70002081318142815381F801E556F94F6081EE
:104B80007181828193810E9424B920E030E040E06D
:104B90005FE30E9488B59B01AC01C301B2010E9492
:104BA0004ABB181644F4F801E850F04E85909590F1
:104BB000A590B49003C0812C912C5401F801EB5DB9
:104BC000FE4E2081318142815381C301B2010E9496
:104BD00023B99B01AC01C501B4010E9423B94B016B
:104BE0005C0120E030E040EA51EC0E944ABB87FDC6
:104BF00028C020E030E040EA51E4C501B4010E9441
:104C000023B51816F4F0D6012D913D914D915C918C
:104C1000C501B4010E9423B99B01AC01C301B201DB
:104C20000E9424B9F7016083718382839383D60144
:104C30008D929D92AD92BC9213978BAD9CAD59D540
:104C40002FC0E5E7FDE084918F010F5F1F4F8823A0
:104C500021F00E94B92EF801F6CFE4EFF7E084913D
:104C60008F010F5F1F4F882321F00E94B92EF8019A
:104C7000F6CF61E086EE97E00E9496570E94856726
:104C800088E290E09A83898388EC90E099A388A3D6
:104C9000BE016F5F7F4FCE0180960E94BC43BFC0B4
:104CA000B4E0CB0ED11C0C5F1F4FE4E0EE0EF11C04
:104CB0000C30110509F049CFEFD50E945A3360E05E
:104CC00086ED97E00E94965783E992E099A388A326
:104CD00004E610E01A830983BE01605E7F4FCE01B7
:104CE00001960E94BC438AEB92E099A388A31A83A1
:104CF0000983BE01605E7F4FCE0101960E94BC43D6
:104D00008EC0E5E7FDE084918F010F5F1F4F882380
:104D100021F00E94B92EF801F6CFE2E1F8E084918B
:104D20008F010F5F1F4F882309F479C00E94B92EAD
:104D3000F801F5CF0E94BB8B80E00E942D886FC0E8
:104D40000E94BB8B6CC022D76AC084918F010F5F19
:104D50001F4F882321F00E94B92EF801F6CFE3E21D
:104D6000F8E084918F010F5F1F4F882309F457C02B
:104D70000E94B92EF801F5CFF0907E03FF2009F1D3
:104D8000EEE3F4E184918F010F5F1F4F882319F048
:104D9000F0D7F801F7CF84E5ECD76F2D70E080E015
:104DA00090E04AE00E944E2F80E2E3D704ED12E04B
:104DB000D8018D918D01882311F40C94EF1CD9D763
:104DC000F7CF10927C04EEE3F4E184918F010F5F42
:104DD0001F4F882319F0CDD7F801F7CF60917C04DD
:104DE00070E082E398E00E9450738AE0C2D717C057
:104DF000EEE3F4E184918F010F5F1F4F882319F0D8
:104E0000B8D7F801F7CF60911B1170911C1184E4A1
:104E100098E00E94697382E2ACD78AE0AAD7109228
:104E20001511109214110E94BBA68DC36115710556
:104E300019F4BC0161507109A0E0B0E00C94C711F5
:104E400004D6AB01BC014093010C5093020C60935B
:104E5000030C7093040C80E59BE00E94655BDFCF40
:104E600061E0802F0E94B1516E2D802F0E946F5102
:104E7000F12CB701802F0E94ED510930110579F610
:104E8000F0920E04E0920D04CACF0FD60E9468BAC9
:104E90007093100460930F0480E00E94A99D05D6D2
:104EA00020E030E0A9010E9423B5181644F00E94CA
:104EB000D68160E085E893E00E94965702C00E9488
:104EC0000B4460910F0470911004072E000C880BA6
:104ED000990B0E9429B52091940830919508409132
:104EE0009608509197080E944ABB1816B4F489ECB2
:104EF00092E09F938F938091700390E001969F932F
:104F00008F938EE793E09F938F931F920E94F043BD
:104F10000FB6F894DEBF0FBECDBF0E94FFAD81E09B
:104F20008093290223961CAE1DAE1EAE1FAE2397A2
:104F30002B961CAE1DAE1EAE1FAE2B971BAE2C9635
:104F40001FAE2C979CE360969FAF6097ACE1649690
:104F5000AFAF6497B6E46896BFAF6897C12CD12C09
:104F600000E8E02E8FEBF82E812C912C54016091FB
:104F70000F0470911004072E000C880B990B0E94EF
:104F800029B5162F072F782E692E262F372F482F59
:104F9000592FB601C7010E9423B5882321F1209122
:104FA0009408309195084091960850919708612F88
:104FB000702F872D962D0E9423B5881F8827881F64
:104FC0008BAF2496EFAD2497EE2389F0882379F0F8
:104FD00080912902882309F422CF60E08CE693E0D7
:104FE0000E9496571CCF1C2D0D2D7E2C6F2C0E94DD
:104FF000EC526B017C01DC01CB012B962CAD3DAD5D
:105000004EAD5FAD2B97821B930BA40BB50BB7FD79
:1050100039C0D701C60188519C4FAF4FBF4F2B9667
:105020008CAF9DAFAEAFBFAF2B970E946034EAE765
:10503000F3E084912F019FEF491A590A882319F050
:1050400098D6F201F6CF81149104A104B104B1F015
:10505000D501C40188519C4FAF4FBF4FBC01CD015A
:105060006C197D098E099F0928EE33E040E050E07D
:105070000E94E8B8CA01B901B3D702C08FE379D65C
:105080008AE077D60E945F9869D620909408309085
:10509000950840909608509097089101A201612FC1
:1050A000702F872D962D0E9423B99F77811491042C
:1050B000A104B10449F420E030E040E85FE30E943D
:1050C00023B587FF0BC008C020E030E040E450E487
:1050D0000E944ABB181614F446015701ABADAA232F
:1050E00009F443C023962CAD3DAD4EAD5FAD239783
:1050F000211531054105510541F0D701C601821B3B
:10510000930BA40BB50BB7FD30C09101A2012C96F7
:105110006FAD2C9760967FAD609764968FAD649766
:1051200068969FAD68970E9423B920E030E040EC7C
:105130005FE30E9423B587FD4BCFD701C601805A9C
:105140009541AF4FBF4F23968CAF9DAFAEAFBFAF72
:1051500023972C962FAE2C9760963FAE609764965F
:105160004FAE649768965FAE689780912902882356
:1051700009F42ECF81149104A104B10429F4C12EA5
:10518000D02EE72CF62CF3CE98EEC91A93E0D90A6C
:10519000E108F108C818D908EA08FB08F7FE18CF9B
:1051A000EECF0E94B6A088E5B3D4882319F05F9AA9
:1051B0001092E20689E5ACD4882319F08A9A1092FD
:1051C000E3068AE5A5D4882351F09FB7F89480912F
:1051D00008018160809308019FBF1092E40685E476
:1051E00097D4882309F41BCE0E94B9A618CE259621
:1051F000AEACBFAC25971A141B040CF043C1E1966A
:105200008CAC9DACAEACBFACE197880E991EAA1ECB
:10521000BB1EE1962CAD3DAD4EAD5FADE197281BB9
:10522000390B4A0B5B0BCA01B901A30192010E9421
:10523000D9B8A50194010E940FBC23964CAC5DAC7B
:105240006EAC7FAC2397420E531E641E751E34E174
:1052500043165104610471041CF14CEE44165104D0
:10526000610471043CF450E8451651046104710472
:105270003CF105C06BEE462E512C612C712C23960F
:105280004CAE5DAE6EAE7FAE23978EEF90E0A0E0A9
:10529000B0E084199509A609B7092C013D0116C093
:1052A00024E130E040E050E023962CAF3DAF4EAF1C
:1052B0005FAF239754E1452E512C612C712C06C011
:1052C00023964CAE5DAE6EAE7FAE239723964CAD6B
:1052D0005DAD6EAD7FAD23978EEC97E00E94D8ADAB
:1052E000B301A20189EC97E00E94D8AD68964FAD5A
:1052F000689769965FAD69976A966FAD6A976B9686
:105300007FAD6B9782EC97E00E9433736C964FAD44
:105310006C976D965FAD6D976E966FAD6E976F964D
:105320007FAD6F978BEB97E00E94337325964EAD60
:105330005FAD2597433051050CF4A4C0C301B20101
:105340000E9429B520E030E040E850E40E9488B592
:105350006B017C0168962FAD689769963FAD6997A0
:105360006A964FAD6A976B965FAD6B976C966FAD13
:105370006C976D967FAD6D976E968FAD6E976F96AD
:105380009FAD6F970E9423B92BED3FE049E450E4B5
:105390000E9488B520E030E040E05FE30E9488B5DD
:1053A0009B01AC01C701B6010E9400BA6B017C01F0
:1053B000C501B4010E9429B52FE632E143E85AE362
:1053C0000E9488B54B015C01B701A60185EB97E00F
:1053D0000E943373B501A4018FEA97E00E943373F2
:1053E0002AE939E949E15FE3C701B6010E9488B5BE
:1053F0006B017C019B01AC010E9424B9A5019401C1
:105400000E9400BAA3966CAF7DAF8EAF9FAFA397FB
:10541000A5019401C701B6010E9488B520E030E0E3
:1054200040E05EE30E9488B5A7966CAF7DAF8EAF7B
:105430009FAFA797EFE9F7E084915F015FEFA51AAF
:10544000B50A882319F095D4F501F6CFB701A60166
:1054500089E997E00E943373A3964CAD5DAD6EADC4
:105460007FADA39783E997E00E943373A7964CAD75
:105470005DAD6EAD7FADA7978DE897E00E94337369
:105480008AE077D423968CAD9DADAEADBFAD2397AA
:10549000840D951DA61DB71DB595A7959795879564
:1054A0008093611125968EAD9FAD25970196259627
:1054B0009FAF8EAF25972896AFAC28976896AFAE72
:1054C00068972C96BFAC2C976996BFAE699760968B
:1054D000AFAC60976A96AFAE6A976496BFAC6497BC
:1054E0006B96BFAE6B978BAC9CACADACBEAC21E009
:1054F000A9962FAFA99726CA0E94B6A060E08F2D6B
:105500000E94B1510F3FBFEF1B0759F48F2D0E942E
:105510004D6431E020E0892B09F030E0032F122F99
:1055200005C00130110561F000E010E08F2D0E94F0
:105530004D648017910709F472CC0E945F98F6CFF2
:1055400001E010E0F3CFC658DF4F0FB6F894DEBF8E
:105550000FBECDBFDF91CF911F910F91FF90EF90C4
:10556000DF90CF90BF90AF909F908F907F906F9083
:105570005F904F903F902F90089590919B08E92F56
:10558000F0E0EF50F94F80839F5F943018F49093D0
:105590009B0802C010929B08809193088F5F8093B4
:1055A000930808958FB7F8949091261220912512B0
:1055B000291759F0E92FF0E0EB55FE4E208130E03D
:1055C0009F5F9F779093261202C02FEF3FEF8FBF10
:1055D000C90108950F931F93CF93DF93EC010E94AD
:1055E000EC520E811F812885398501151105210591
:1055F000310559F52C852223A9F13A8521502C87B4
:1056000021E0230F2A874D85241301C01A86FE014D
:1056100024E0329FE00DF11D1124068517852089B5
:1056200031890A831B832C833D83DC01CB01800FEE
:10563000911FA11DB11D8E839F83A887B9878C817F
:105640009D81892B79F0409A0DC0DC01CB01801B34
:10565000910BA20BB30BB7FD05C040981E821F82B1
:1056600018861986DF91CF911F910F91089580E1DF
:10567000ECE6F4E0ADE7B4E001900D928A95E1F735
:105680000895CF92EF92FF920F931F93C0907C04E6
:105690007B018C0128E734E044E754E060E774E0E4
:1056A0008CE694E00E94E8741F910F91FF90EF90B8
:1056B000CF900895CF92EF92FF920F931F93E090B7
:1056C0001102F09012020091130210911402C09086
:1056D0007C0429E834E045E854E061E874E08DE7B3
:1056E00094E00E94E8741F910F91FF90EF90CF908B
:1056F0000895CF92DF92EF92FF920F931F93CF9373
:10570000DF93EC01CC0FDD1FCC0FDD1FFE01EB5151
:10571000F94F20E030E0A90160817181828193819D
:105720000E9424B9FE01EF5CFE4E2081318142814E
:1057300053810E9424B96B017C01FE01EB5DFE4E9A
:105740006083718382839383FE01EE52F64F6591ED
:105750007591859194918E010556194FA701960177
:105760000E9424B9F8016083718382839383FE01D0
:10577000E252F64F6591759185919491C95EDD4F26
:10578000A70196010E9424B9688379838A839B8349
:10579000DF91CF911F910F91FF90EF90DF90CF900D
:1057A0000895CF93FC0180818B33A1F08091930801
:1057B000843080F4C62FBF0180919B0820E6829F31
:1057C000C00111248E5E984F0E948DBC8C2FD5DEB7
:1057D00081E001C080E0CF910895DF92EF92FF92C7
:1057E0000F931F93CF93DF93CDB7DEB76E970FB6AE
:1057F000F894DEBF0FBECDBF6091990670919A06F6
:105800006115710501F14DE150E0CE0101967C0179
:105810000E9493B41E8EF7018F010E191F09D190BB
:10582000DD2019F09AE0D912F7CFF701E00FF11F50
:10583000108260E0C701B5DF882329F0C7010E940C
:10584000D997811109C081E02091990630919A067B
:10585000232BA1F480E012C0DD2049F00F5F1F4F21
:105860008091990690919A06080F191F02C000E0D6
:1058700010E010939A0600939906E5CF6E960FB646
:10588000F894DEBF0FBECDBFDF91CF911F910F9176
:10589000FF90EF90DF90089529E834E045E854E068
:1058A00061E874E08DE794E00C94FB7388E893E181
:1058B0009093F1108093F01080916F008D7F809312
:1058C0006F009091550980915609981719F00E9420
:1058D000A68EF7CF10924C1110924B1180916F0051
:1058E000826080936F008FB7F8941092B506109283
:1058F000B6061092B7061092B8068FBF0E94B6A0E7
:1059000080E090E00E9498A06093EC037093ED0318
:105910008093EE039093EF0381E090E00E9498A0C3
:105920006093F0037093F1038093F2039093F30379
:1059300082E090E00E9498A06093F4037093F503D6
:105940008093F6039093F7038CE0ECEEF3E0ADE781
:10595000B4E001900D928A95E1F79ECF9F92AF92AD
:10596000BF92CF92DF92EF92FF920F931F93CF934C
:10597000DF9300D01F92CDB7DEB7902EA12EB22EAE
:10598000D32E7C01EE0CFF1CEE0CFF1C870103588C
:105990001B4FF801108211821282138249835A83AD
:1059A0006B837C8379DF49815A816B817C81F8012B
:1059B0004083518362837383C0907C0420E030E095
:1059C000A901692D7A2D8B2D9D2D0E9423B5811162
:1059D00008C0F701EC5FFF4DE590F590059114913B
:1059E00006C0892D9A2DAB2DBD2D7C018D0129E896
:1059F00034E045E854E061E874E08DE794E00E940B
:105A0000E8740E94B6A0109211070F900F900F90AB
:105A10000F90DF91CF911F910F91FF90EF90DF904A
:105A2000CF90BF90AF909F90089580918103909107
:105A30008203009731F04AE050E060E070E00C949F
:105A40003FB360E070E0CB010895809181039091B5
:105A50008203009731F04AE050E060E070E00C947F
:105A600017B260E070E0CB010895EFDF97FD0AC048
:105A7000ECDF6F3F71058105910509F02CF4E5DF3E
:105A8000862F089580E008958FEF08958091810317
:105A900090918203892B31F0E8DF91E0811103C0FE
:105AA00090E001C091E0892F08950F931F93CF9349
:105AB00080918103909182030097F1F0FC018F01A6
:105AC000C1912C2F2F7D89F0C53411F0C536B9F75F
:105AD000F801108260E070E00E94B1B0F801C0836C
